{
  "contractName": "ZombieFactory",
  "abi": [
    {
      "constant": true,
      "inputs": [
        {
          "name": "",
          "type": "address"
        }
      ],
      "name": "ownerZombieCount",
      "outputs": [
        {
          "name": "",
          "type": "uint256"
        }
      ],
      "payable": false,
      "stateMutability": "view",
      "type": "function"
    },
    {
      "constant": true,
      "inputs": [
        {
          "name": "",
          "type": "uint256"
        }
      ],
      "name": "zombies",
      "outputs": [
        {
          "name": "name",
          "type": "string"
        },
        {
          "name": "dna",
          "type": "uint256"
        }
      ],
      "payable": false,
      "stateMutability": "view",
      "type": "function"
    },
    {
      "constant": true,
      "inputs": [
        {
          "name": "",
          "type": "uint256"
        }
      ],
      "name": "zombieToOwner",
      "outputs": [
        {
          "name": "",
          "type": "address"
        }
      ],
      "payable": false,
      "stateMutability": "view",
      "type": "function"
    },
    {
      "anonymous": false,
      "inputs": [
        {
          "indexed": false,
          "name": "zombieId",
          "type": "uint256"
        },
        {
          "indexed": false,
          "name": "name",
          "type": "string"
        },
        {
          "indexed": false,
          "name": "dna",
          "type": "uint256"
        }
      ],
      "name": "NewZombie",
      "type": "event"
    },
    {
      "constant": false,
      "inputs": [
        {
          "name": "_name",
          "type": "string"
        }
      ],
      "name": "createRandomZombie",
      "outputs": [],
      "payable": false,
      "stateMutability": "nonpayable",
      "type": "function"
    }
  ],
  "bytecode": "0x60806040526010600055600054600a0a60015534801561001e57600080fd5b506107f58061002e6000396000f3fe608060405260043610610062576000357c0100000000000000000000000000000000000000000000000000000000900463ffffffff16806301afd7e1146100675780632052465e146100cc578063528b7b8f146101875780637bff0a0114610202575b600080fd5b34801561007357600080fd5b506100b66004803603602081101561008a57600080fd5b81019080803573ffffffffffffffffffffffffffffffffffffffff1690602001909291905050506102ca565b6040518082815260200191505060405180910390f35b3480156100d857600080fd5b50610105600480360360208110156100ef57600080fd5b81019080803590602001909291905050506102e2565b6040518080602001838152602001828103825284818151815260200191508051906020019080838360005b8381101561014b578082015181840152602081019050610130565b50505050905090810190601f1680156101785780820380516001836020036101000a031916815260200191505b50935050505060405180910390f35b34801561019357600080fd5b506101c0600480360360208110156101aa57600080fd5b81019080803590602001909291905050506103ad565b604051808273ffffffffffffffffffffffffffffffffffffffff1673ffffffffffffffffffffffffffffffffffffffff16815260200191505060405180910390f35b34801561020e57600080fd5b506102c86004803603602081101561022557600080fd5b810190808035906020019064010000000081111561024257600080fd5b82018360208201111561025457600080fd5b8035906020019184600183028401116401000000008311171561027657600080fd5b91908080601f016020809104026020016040519081016040528093929190818152602001838380828437600081840152601f19601f8201169050808301925050505050505091929192905050506103e0565b005b60046020528060005260406000206000915090505481565b6002818154811015156102f157fe5b9060005260206000209060020201600091509050806000018054600181600116156101000203166002900480601f01602080910402602001604051908101604052809291908181526020018280546001816001161561010002031660029004801561039d5780601f106103725761010080835404028352916020019161039d565b820191906000526020600020905b81548152906001019060200180831161038057829003601f168201915b5050505050908060010154905082565b60036020528060005260406000206000915054906101000a900473ffffffffffffffffffffffffffffffffffffffff1681565b6000600460003373ffffffffffffffffffffffffffffffffffffffff1673ffffffffffffffffffffffffffffffffffffffff1681526020019081526020016000205414151561042e57600080fd5b600061043982610449565b905061044582826104f4565b5050565b600080826040516020018080602001828103825283818151815260200191508051906020019080838360005b83811015610490578082015181840152602081019050610475565b50505050905090810190601f1680156104bd5780820380516001836020036101000a031916815260200191505b509250505060405160208183030381529060405280519060200120600190049050600154818115156104eb57fe5b06915050919050565b6002604080519081016040528084815260200183815250908060018154018082558091505090600182039060005260206000209060020201600090919290919091506000820151816000019080519060200190610552929190610724565b50602082015181600101555050506000600160026040805190810160405280868152602001858152509080600181540180825580915050906001820390600052602060002090600202016000909192909190915060008201518160000190805190602001906105c2929190610724565b50602082015181600101555050039050336003600083815260200190815260200160002060006101000a81548173ffffffffffffffffffffffffffffffffffffffff021916908373ffffffffffffffffffffffffffffffffffffffff160217905550600460003373ffffffffffffffffffffffffffffffffffffffff1673ffffffffffffffffffffffffffffffffffffffff168152602001908152602001600020600081548092919060010191905055507f88f026aacbbecc90c18411df4b1185fd8d9be2470f1962f192bf84a27d0704b78184846040518084815260200180602001838152602001828103825284818151815260200191508051906020019080838360005b838110156106e35780820151818401526020810190506106c8565b50505050905090810190601f1680156107105780820380516001836020036101000a031916815260200191505b5094505050505060405180910390a1505050565b828054600181600116156101000203166002900490600052602060002090601f016020900481019282601f1061076557805160ff1916838001178555610793565b82800160010185558215610793579182015b82811115610792578251825591602001919060010190610777565b5b5090506107a091906107a4565b5090565b6107c691905b808211156107c25760008160009055506001016107aa565b5090565b9056fea165627a7a72305820ef61cb90bc914663f48f94815f4715e8adfb4ee67beac827f17272bcaba73e320029",
  "source": "pragma solidity >=0.4.21 <0.7.0;\r\n\r\ncontract ZombieFactory {\r\n\r\n    // 这里建立事件 用于查看事件\r\n    event NewZombie(uint zombieId, string name, uint dna);\r\n\r\n    uint dnaDigits = 16;\r\n    uint dnaModulus = 10 ** dnaDigits;\r\n    //定义结构体\r\n    struct Zombie {\r\n        string name;\r\n        uint dna;\r\n    }\r\n\r\n    Zombie[] public zombies;\r\n    // 定义映射用来控制\r\n    /*\r\n    第一映射--- 用来id映射 地址\r\n    第二映射 -- 用来记录僵尸数量\r\n    */\r\n    mapping (uint => address) public zombieToOwner;\r\n    mapping (address => uint) public ownerZombieCount;\r\n\r\n    function _createZombie(string memory _name, uint _dna) private {\r\n        zombies.push(Zombie(_name, _dna));\r\n        // 这里触发事件\r\n        uint id = zombies.push(Zombie(_name, _dna)) - 1;\r\n        //创造一个僵尸之后，控制这个addresss对应的僵尸数量\r\n        zombieToOwner[id] = msg.sender;\r\n        ownerZombieCount[msg.sender]++;\r\n        emit NewZombie(id, _name, _dna);\r\n\r\n    }\r\n    //产生随机dna\r\n    function _generateRandomDna(string memory _str) private view returns (uint) {\r\n        uint rand = uint(keccak256(abi.encode(_str)));\r\n        return rand % dnaModulus;\r\n    }\r\n    // 产生随机僵尸\r\n    function createRandomZombie(string memory _name) public {\r\n        require(ownerZombieCount[msg.sender] == 0);\r\n        uint randDna = _generateRandomDna(_name);\r\n        _createZombie(_name, randDna);\r\n    }\r\n\r\n}\r\n",
  "sourcePath": "J:\\truffle_workplace\\zombies_game\\contracts\\zombiefactory.sol",
  "compiler": {
    "name": "solc",
    "version": "0.5.0+commit.1d4f565a.Emscripten.clang"
  },
  "schemaVersion": "3.0.2",
  "updatedAt": "2020-02-21T10:55:54.065Z",
  "devdoc": {
    "methods": {}
  },
  "userdoc": {
    "methods": {}
  }
}